:100000000C945B000C9483000C9483000C9483008C
:100010000C9483000C9483000C9483000C94830054
:100020000C9483000C9483000C9483000C94830044
:100030000C9483000C9483000C9483000C94830034
:100040000C9482060C9483000C9403090C94830096
:100050000C9483000C9483000C9483000C94830014
:100060000C9483000C948300000024272A000025B0
:10007000282B000023262904040404040404040299
:100080000202020202030303030303010204081035
:100090002040800102040810200102040810200002
:1000A0000000070002010000030406000000000039
:1000B00000000000DA0411241FBECFEFD4E0DEBF41
:1000C000CDBF11E0A0E0B1E0E8E5F3E102C00590AA
:1000D0000D92AA32B107D9F711E0AAE2B1E001C04E
:1000E0001D92A63EB107E1F710E0C6EBD0E004C0D8
:1000F0002297FE010E94A609C43BD107C9F70E94BE
:10010000D3040C94AA090C94000061E080910801CA
:100110000E94F20760912A01809104010E94F20777
:1001200060912A01809100010E94F20760912A01EA
:10013000809108010E94F2070895CF92DF92EF921A
:10014000FF920F931F93CF93DF936C018B0160910C
:100150002C0170912D01809106010E9480070E9460
:10016000DF067B01B801809104010E948007C0E096
:10017000D0E052C00E94DF068701061B170B80915A
:1001800018019091190180179107FCF460912A01E0
:10019000809104010E94F207E0911C01F0911D0181
:1001A000EE0FFF1FEC5BFE4F11830083809138013F
:1001B0009091390120911A0130911B01820F931FF8
:1001C000909339018093380127C08091300190913C
:1001D00031019093330180933201809100010E949C
:1001E0003D0890933101809330012091320130918C
:1001F00033018217930749F080912E0190912F01CE
:10020000019690932F0180932E0180912E01909161
:100210002F01049709F42196CC15DD0551F0E091EA
:100220001C01F0911D01E65CFE4F8081882309F4DA
:10023000A1CF60912A01809104010E94F207E09110
:100240002001F0912101E65CFE4F8081882349F076
:10025000E0911C01F0911D01E65CFE4F8081882336
:10026000C1F4E0911601F0911701EE0FFF1FEC5B56
:10027000FE4F1183008380913801909139012091C4
:10028000140130911501820F931F909339018093CF
:100290003801DF91CF911F910F91FF90EF90DF9088
:1002A000CF900895CF92DF92EF92FF920F931F931A
:1002B000CF93DF937C018B0160910A0170910B0158
:1002C000809106010E9480070E94DF066B01B80141
:1002D000809104010E948007EF28D1F130C00E9474
:1002E000DF06E601C61BD70B80911801909119011A
:1002F0008C179D07F4F460912A01809104010E94FB
:10030000F207E0911C01F0911D01EE0FFF1FEC5B65
:10031000FE4FD183C08380913801909139012091A3
:100320001A0130911B01820F931F90933901809322
:10033000380160912A01809104010E94F207E09146
:100340001C01F0911D01E65CFE4F8081882339F28B
:10035000E0912001F0912101E65CFE4F808188232D
:1003600049F0E0911C01F0911D01E65CFE4F808197
:100370008823C9F4E0911601F0911701EE0FFF1FD9
:10038000EC5BFE4FD183C08380913801909139019D
:100390002091140130911501820F931F9093390120
:1003A0008093380120C08091300190913101909369
:1003B000330180933201809104010E943D089093A3
:1003C0003101809330012091320130913301821745
:1003D000930749F080912E0190912F0101969093FF
:1003E0002F0180932E0160912A01809104010E94C7
:1003F000F207E0912001F0912101E65CFE4F80813F
:10040000882349F0E0911C01F0911D01E65CFE4F4C
:100410008081882371F48091380190913901209175
:10042000140130911501820F931F9093390180932D
:100430003801DF91CF911F910F91FF90EF90DF90E6
:10044000CF900895CF92DF92EF92FF920F931F9378
:10045000CF93DF937C018B0160910A0170910B01B6
:10046000809102010E9480070E94DF066B01B801A3
:10047000809100010E948007EF28D1F130C00E94D6
:10048000DF06E601C61BD70B809118019091190178
:100490008C179D07F4F460912A01809100010E945D
:1004A000F207E0911C01F0911D01EE0FFF1FEC5BC4
:1004B000FE4FD183C0838091380190913901209102
:1004C0001A0130911B01820F931F90933901809381
:1004D000380160912A01809100010E94F207E091A9
:1004E0001C01F0911D01E65CFE4F8081882339F2EA
:1004F000E0912001F0912101E65CFE4F808188238C
:1005000049F0E0911C01F0911D01E65CFE4F8081F5
:100510008823C9F4E0911601F0911701EE0FFF1F37
:10052000EC5BFE4FD183C0838091380190913901FB
:100530002091140130911501820F931F909339017E
:100540008093380120C080913401909135019093BF
:10055000370180933601809100010E943D089093FD
:100560003501809334012091360130913701821793
:10057000930749F080912E0190912F01019690935D
:100580002F0180932E0160912A01809100010E9429
:10059000F207E0912001F0912101E65CFE4F80819D
:1005A000882349F0E0911C01F0911D01E65CFE4FAB
:1005B0008081882371F480913801909139012091D4
:1005C000140130911501820F931F9093390180938C
:1005D0003801DF91CF911F910F91FF90EF90DF9045
:1005E000CF900895CF92DF92EF92FF920F931F93D7
:1005F000CF93DF936C018B0160912C0170912D01E1
:10060000809102010E9480070E94DF067B01B801F1
:10061000809100010E948007C0E0D0E048C00E94A5
:10062000DF069701261B370B809118019091190165
:1006300082179307ACF460912A01809100010E9417
:10064000F207809138019091390120911A0130917F
:100650001B01820F931F909339018093380127C0AB
:100660008091340190913501909337018093360148
:10067000809100010E943D089093350180933401E0
:1006800020913601309137018217930749F080910C
:100690002E0190912F01019690932F0180932E01AE
:1006A00080912E0190912F01049709F42196CC1589
:1006B000DD0551F0E0911C01F0911D01E65CFE4F5B
:1006C0008081882309F4ABCF60912A0180910001D9
:1006D0000E94F207E0912001F0912101E65CFE4FBB
:1006E0008081882349F0E0911C01F0911D01E65CB6
:1006F000FE4F8081882371F48091380190913901F7
:100700002091140130911501820F931F90933901AC
:1007100080933801DF91CF911F910F91FF90EF905F
:10072000DF90CF9008959F92AF92BF92CF92DF92C9
:10073000EF92FF920F931F93CF93DF9388E591E0A1
:100740000E94EB04882309F4F6C088E591E00E943A
:10075000E804982E81E0981679F488E591E00E94EB
:10076000E8047C0188E591E00E94E8045C01BC019A
:10077000C7010E949D0051C0E2E09E1679F488E511
:1007800091E00E94E8047C0188E591E00E94E80481
:100790005C01BC01C7010E9452013FC0F3E09F16FB
:1007A00039F46FE170E088E591E00E944A064DC09F
:1007B00084E0981659F488E591E00E94E8047C01F1
:1007C00088E591E00E94E8045C0123C0E5E09E1604
:1007D00079F488E591E00E94E8047C0188E591E0E5
:1007E0000E94E8045C01BC01C7010E949D0011C089
:1007F000F6E09F1651F588E591E00E94E8047C013F
:1008000088E591E00E94E8045C01BC01C7010E94F8
:100810005201B501C7010E94F2020027F7FC0095C2
:10082000102F2AE030E0B801A70188E591E00E948E
:100830006206CC24B7FCC094DC2C2AE030E0B60180
:10084000A50188E591E00E9462066FE170E088E50D
:1008500091E00E944A0688E0981659F488E591E0F4
:100860000E94E8047C0188E591E00E94E8045C01B4
:1008700023C0E9E09E1679F488E591E00E94E8043F
:100880007C0188E591E00E94E8045C01BC01C7019D
:100890000E949D0011C0FAE09F1659F588E591E08D
:1008A0000E94E8047C0188E591E00E94E8045C0174
:1008B000BC01C7010E945201B501C7010E9422027A
:1008C0000027F7FC0095102F2AE030E0B801A701BF
:1008D00088E591E00E946206CC24B7FCC094DC2C31
:1008E0002AE030E0B601A50188E591E00E946206A9
:1008F00009C08BE0981631F46FE170E088E591E073
:100900000E944A06609138017091390188E591E0B2
:100910000E945206C4E4D1E00AE311E0688188E550
:1009200091E00E94E104F80111928F012296F1E01A
:10093000C835DF0799F7DF91CF911F910F91FF9095
:10094000EF90DF90CF90BF90AF909F9008950F935E
:100950001F9308E511E040E855E260E070E0C8014F
:100960000E94EE0460912201C8010E94FB0461E034
:10097000809100010E94D40761E0809102010E94F1
:10098000D40761E0809104010E94D40761E0809166
:1009900006010E94D40761E0809108010E94D407FB
:1009A0001F910F9108950E9425070E94A7040E949D
:1009B0009303FDCF87E291E0909359018093580112
:1009C0000895862F0E94C20808950E94FA0808958B
:1009D0000E94DB0808950E94CA080895CB01BA015D
:1009E0000E9489080895DC01ED91FC910190F0814D
:1009F000E02D09950895DC01ED91FC910190F081C5
:100A0000E02D099508950F931F93CF93DF938C01E9
:100A1000EB0109C02196D801ED91FC910190F08184
:100A2000E02DC801099568816623A1F7DF91CF9178
:100A30001F910F9108950F931F938C01DC01ED918D
:100A4000FC910190F081E02D6DE00995D801ED91C8
:100A5000FC910190F081E02D6AE0C80109951F9199
:100A60000F9108950F931F938C01DC01ED91FC9180
:100A70000190F081E02D0995C8010E941B051F918E
:100A80000F9108950F931F938C010E940305C801D5
:100A90000E941B051F910F9108950F931F938C01C6
:100AA000DC01ED91FC910190F081E02D0995C801E8
:100AB0000E941B051F910F9108952F923F924F9214
:100AC0005F926F927F928F929F92AF92BF92CF92DE
:100AD000DF92EF92FF920F931F93DF93CF93CDB7E7
:100AE000DEB7A0970FB6F894DEBF0FBECDBF1C01D6
:100AF0006A017B01411551056105710549F4DC016D
:100B0000ED91FC910190F081E02D60E3099554C0D6
:100B1000882499245401422E55246624772401E028
:100B200010E00C0F1D1F080D191DC701B601A30110
:100B300092010E945309F80160830894811C911C62
:100B4000A11CB11CC701B601A30192010E94530967
:100B5000C901DA016C017D01C114D104E104F10481
:100B6000F1F681E0E82EF12CEC0EFD1EE80CF91CEC
:100B70003E010894611C711CD501C4010197A109B3
:100B8000B1096C01C818D90814C0F601EE0DFF1D9B
:100B900060816A3010F4605D01C0695CD101ED9143
:100BA000FC910190F081E02DC10109950894E108C4
:100BB000F1086E147F0449F7A0960FB6F894DEBFD3
:100BC0000FBECDBFCF91DF911F910F91FF90EF909E
:100BD000DF90CF90BF90AF909F908F907F906F905D
:100BE0005F904F903F902F9008952AE00E945D05FE
:100BF00008950F931F938C010E94F505C8010E9470
:100C00001B051F910F910895AB0160E070E00E94F9
:100C1000F50508950F931F938C01AB0160E070E020
:100C20000E94F505C8010E941B051F910F910895B0
:100C3000EF92FF920F931F93CF93DF93EC017A0112
:100C40008B0177FF0FC0E881F9810190F081E02DE1
:100C50006DE2099510950095F094E094E11CF11C6B
:100C6000011D111D2AE0B801A701CE010E945D05FA
:100C7000DF91CF911F910F91FF90EF9008950F9307
:100C80001F938C010E941806C8010E941B051F912A
:100C90000F910895AB01662757FD6095762F0E944E
:100CA000180608950F931F938C01AB01662757FD1B
:100CB0006095762F0E941806C8010E941B051F919F
:100CC0000F910895DC012115310541F4ED91FC915E
:100CD0000190F081E02D642F099508952A303105A7
:100CE00019F40E94180608950E945D0508950F9357
:100CF0001F938C010E946206C8010E941B051F9170
:100D00000F9108951F920F920FB60F9211242F93F7
:100D10008F939F93AF93BF9380915A0190915B0102
:100D2000A0915C01B0915D018050904CAF4FBF4FDE
:100D300080935A0190935B01A0935C01B0935D0195
:100D400027C080915A0190915B01A0915C01B09104
:100D50005D0180589E43A040B04080935A0190931B
:100D60005B01A0935C01B0935D0180915E01909165
:100D70005F01A0916001B09161010196A11DB11DBB
:100D800080935E0190935F01A0936001B093610135
:100D900080915A0190915B01A0915C01B0915D013D
:100DA00081589E43A040B04060F6BF91AF919F91A3
:100DB0008F912F910F900FBE0F901F9018958FB7A6
:100DC000F89420915E0130915F0140916001509153
:100DD00061018FBFB901CA010895EF92FF920F938D
:100DE0001F937B018C018FB7F89440915E01509165
:100DF0005F0160916001709161018FBF2FB7F8941E
:100E000080915E0190915F01A0916001B0916101BC
:100E10002FBF841B950BA60BB70B8E159F05A00744
:100E2000B10760F31F910F91FF90EF900895019724
:100E300059F0FC01EE0FFF1FEE0FFF1F32978FB727
:100E4000F8943197F1F78FBF0895789484B5826054
:100E500084BD84B5816084BD85B5826085BD85B55E
:100E6000816085BDEEE6F0E0808181608083E1E80D
:100E7000F0E0808182608083808181608083E0E80F
:100E8000F0E0808181608083E1EBF0E0808184602C
:100E90008083E0EBF0E0808181608083EAE7F0E02E
:100EA0008081846080838081826080838081816092
:100EB00080838081806880831092C1000895809330
:100EC000290108958F70909129019295990F990F9A
:100ED000907C982B90937C0080917A008064809322
:100EE0007A0080917A0086FDFCCF209178004091B5
:100EF0007900942F80E030E0282B392BC901089528
:100F00001F93CF93DF93182FEB0161E00E94D4076A
:100F1000E12FF0E0E156FF4F8491833051F480914E
:100F20008000806880938000D0938900C0938800FF
:100F300037C0843051F480918000806280938000BB
:100F4000D0938B00C0938A002BC0813029F484B5E4
:100F5000806884BDC7BD24C0823029F484B5806216
:100F600084BDC8BD1DC0863041F48091B00080684A
:100F70008093B000C093B30013C0873041F48091D8
:100F8000B00080628093B000C093B40009C0C03844
:100F9000D10514F460E001C061E0812F0E94F207E6
:100FA000DF91CF911F910895282F30E0C901855717
:100FB0009F4FFC01949129583F4FF9018491882358
:100FC00081F0E82FF0E0E859FF4FE491F0E066236C
:100FD00029F4808190958923808308958081892BCD
:100FE00080830895482F50E0CA0181569F4FFC012D
:100FF0002491CA0185579F4FFC01949149585F4F36
:10100000FA0134913323C1F1222331F1233021F449
:10101000809180008F7705C0243031F4809180006A
:101020008F7D8093800018C0213019F484B58F77AC
:1010300004C0223021F484B58F7D84BD0DC02630DC
:1010400021F48091B0008F7705C0273029F480917A
:10105000B0008F7D8093B000E32FF0E0E359FF4FA5
:10106000E491F0E0662329F48081909589238083C0
:1010700008958081892B80830895482F50E0CA010C
:1010800081569F4FFC012491CA0185579F4FFC0157
:10109000949149585F4FFA013491332319F420E0B9
:1010A00030E035C0222331F1233021F480918000DB
:1010B0008F7705C0243031F4809180008F7D80933C
:1010C000800018C0213019F484B58F7704C0223015
:1010D00021F484B58F7D84BD0DC0263021F480912C
:1010E000B0008F7705C0273029F48091B0008F7D44
:1010F0008093B000E32FF0E0EE58FF4FE491F0E072
:10110000808120E030E0892311F021E030E0C90146
:101110000895EF92FF920F931F937B018C0122E0C1
:1011200030E040E050E00E947509205C3D4B404FAC
:101130005F4FCA01B901A80197010E947509C90151
:10114000DA010197A109B109292F3A2F4B2F552711
:1011500047FD5A950196A11DB11D2093C5008150F0
:101160008093C400E1ECF0E0808180618083808125
:10117000886080838081806880831F910F91FF90B9
:10118000EF900895982F8091C00085FFFCCF909339
:10119000C6000895809162019091630180589F4F2D
:1011A0002091640130916501821B930B60E870E02F
:1011B0000E94400908954091640150916501809119
:1011C0006201909163018417950719F42FEF3FEFA7
:1011D0000FC0FA01EA59FE4F2081CA01019660E86A
:1011E00070E00E944009909365018093640130E0B3
:1011F000C901089580916401909165019093630104
:101200008093620108951F920F920FB60F921124DE
:101210002F933F934F935F936F937F938F939F93FE
:10122000AF93BF93EF93FF934091C600E0916201AB
:10123000F0916301CF01019660E870E00E944009DF
:101240009C0180916401909165012817390739F05C
:10125000EA59FE4F40833093630120936201FF916E
:10126000EF91BF91AF919F918F917F916F915F911E
:101270004F913F912F910F900FBE0F901F90189597
:1012800097FB092E07260AD077FD04D049D006D057
:1012900000201AF4709561957F4F0895F6F79095A8
:1012A00081959F4F0895A1E21A2EAA1BBB1BFD0139
:1012B0000DC0AA1FBB1FEE1FFF1FA217B307E40735
:1012C000F50720F0A21BB30BE40BF50B661F771F8D
:1012D000881F991F1A9469F760957095809590956D
:1012E0009B01AC01BD01CF01089597FB092E052696
:1012F0000ED057FD04D0D7DF0AD0001C38F450952B
:101300004095309521953F4F4F4F5F4F0895F6F729
:1013100090958095709561957F4F8F4F9F4F089561
:10132000AA1BBB1B51E107C0AA1FBB1FA617B7070B
:1013300010F0A61BB70B881F991F5A95A9F7809527
:101340009095BC01CD010895EE0FFF1F0590F4911B
:08135000E02D0994F894FFCF91
:101358000300050009000A000D0001000100020059
:1013680004000800100003001400200002004000E0
:0A13780001004000000000E1040144
:00000001FF
