:100000000C945B000C9483000C9483000C9483008C
:100010000C9483000C9483000C9483000C94830054
:100020000C9483000C9483000C9483000C94830044
:100030000C9483000C9483000C9483000C94830034
:100040000C949E030C9483000C941F060C94830064
:100050000C9483000C9483000C9483000C94830014
:100060000C9483000C948300000024272A000025B0
:10007000282B000023262904040404040404040299
:100080000202020202030303030303010204081035
:100090002040800102040810200102040810200002
:1000A0000000070002010000030406000000000039
:1000B00000000000F60111241FBECFEFD4E0DEBF28
:1000C000CDBF11E0A0E0B1E0E0E9FDE002C00590A5
:1000D0000D92A431B107D9F711E0A4E1B1E001C05C
:1000E0001D92A63AB107E1F710E0C6EBD0E004C0DC
:1000F0002297FE010E94C206C43BD107C9F70E94A5
:10010000EF010C94C6060C94000060910A017091F6
:100110000B01809102010E949C0460910A01709180
:100120000B01809106010E949C046091080180915E
:1001300000010E940E0560910801809104010E9457
:100140000E0560EA7FE080E090E00E940904609183
:100150001401809100010E940E05609114018091AC
:1001600004010E940E050895609116017091170117
:10017000809102010E949C04609116017091170108
:10018000809106010E949C04609108018091000109
:100190000E940E0560910801809104010E940E05E5
:1001A00060EA7FE080E090E00E9409046091140121
:1001B000809100010E940E0560911401809104015C
:1001C0000E940E05089560910A0170910B018091C3
:1001D00006010E949C0460910801809104010E9424
:1001E0000E0560EA7FE080E090E00E9409046091E3
:1001F0001401809104010E940E05089560910A0186
:1002000070910B01809102010E949C046091080191
:10021000809100010E940E0560EA7FE080E090E09E
:100220000E94090460911401809100010E940E0552
:1002300008956091160170911701809106010E9446
:100240009C0460910801809104010E940E0560EAFF
:100250007FE080E090E00E940904609114018091A9
:1002600004010E940E050895609116017091170116
:10027000809102010E949C0460910801809100011C
:100280000E940E0560EA7FE080E090E00E94090491
:1002900060911401809100010E940E050895609103
:1002A000160170911701809102010E949C046091D7
:1002B000160170911701809106010E949C046091C3
:1002C0000801809100010E940E0560910801809153
:1002D00004010E940E0568EE73E080E090E00E9449
:1002E000090460911401809100010E940E05609143
:1002F0001401809104010E940E0508951F9388E166
:1003000091E00E9407028823C9F188E191E00E94F0
:100310000402813439F464EF71E080E890E00E94D7
:1003200034012CC0823439F464EF71E080E890E04D
:100330000E94FE0023C0843439F464EF71E080E849
:1003400090E00E9419011AC0853439F464EF71E01D
:1003500080E890E00E94E30011C0873439F464EF34
:1003600071E080E890E00E94B40008C0883431F465
:1003700064EF71E080E890E00E94850010E060E0AA
:10038000812F0E940E051F5F1E30C9F71F9108952F
:100390000F931F9308E111E040E855E260E070E040
:1003A000C8010E940A0260910C01C8010E94170254
:1003B00061E0809100010E94F00461E080910401FD
:1003C0000E94F00461E0809102010E94F00461E06B
:1003D000809106010E94F0041F910F9108950E94E0
:1003E00041040E94C8010E947E01FDCF81E191E09D
:1003F00090931901809318010895862F0E94DE05BD
:1004000008950E94160608950E94F70508950E9417
:10041000E6050895CB01BA010E94A5050895DC0107
:10042000ED91FC910190F081E02D09950895DC019A
:10043000ED91FC910190F081E02D099508950F93C5
:100440001F93CF93DF938C01EB0109C02196D80154
:10045000ED91FC910190F081E02DC8010995688132
:100460006623A1F7DF91CF911F910F9108950F930C
:100470001F938C01DC01ED91FC910190F081E02D46
:100480006DE00995D801ED91FC910190F081E02D8E
:100490006AE0C80109951F910F9108950F931F936A
:1004A0008C01DC01ED91FC910190F081E02D09952A
:1004B000C8010E9437021F910F9108950F931F9357
:1004C0008C010E941F02C8010E9437021F910F91E8
:1004D00008950F931F938C01DC01ED91FC91019025
:1004E000F081E02D0995C8010E9437021F910F91FC
:1004F00008952F923F924F925F926F927F928F92C8
:100500009F92AF92BF92CF92DF92EF92FF920F93A2
:100510001F93DF93CF93CDB7DEB7A0970FB6F894B4
:10052000DEBF0FBECDBF1C016A017B014115510525
:100530006105710549F4DC01ED91FC910190F081B8
:10054000E02D60E3099554C0882499245401422E7B
:1005500055246624772401E010E00C0F1D1F080DC0
:10056000191DC701B601A30192010E946F06F8018F
:1005700060830894811C911CA11CB11CC701B601A9
:10058000A30192010E946F06C901DA016C017D018D
:10059000C114D104E104F104F1F681E0E82EF12C5C
:1005A000EC0EFD1EE80CF91C3E010894611C711C48
:1005B000D501C4010197A109B1096C01C818D90876
:1005C00014C0F601EE0DFF1D60816A3010F4605D0D
:1005D00001C0695CD101ED91FC910190F081E02DA9
:1005E000C10109950894E108F1086E147F0449F7E8
:1005F000A0960FB6F894DEBF0FBECDBFCF91DF91AE
:100600001F910F91FF90EF90DF90CF90BF90AF9030
:100610009F908F907F906F905F904F903F902F9022
:1006200008952AE00E94790208950F931F938C0188
:100630000E941103C8010E9437021F910F91089573
:10064000AB0160E070E00E94110308950F931F93C7
:100650008C01AB0160E070E00E941103C8010E94B0
:1006600037021F910F910895EF92FF920F931F93FE
:10067000CF93DF93EC017A018B0177FF0FC0E88104
:10068000F9810190F081E02D6DE2099510950095BA
:10069000F094E094E11CF11C011D111D2AE0B80149
:1006A000A701CE010E947902DF91CF911F910F9196
:1006B000FF90EF9008950F931F938C010E943403D5
:1006C000C8010E9437021F910F910895AB01662760
:1006D00057FD6095762F0E94340308950F931F9362
:1006E0008C01AB01662757FD6095762F0E9434037D
:1006F000C8010E9437021F910F910895DC01211556
:10070000310541F4ED91FC910190F081E02D642FD1
:10071000099508952A30310519F40E94340308958B
:100720000E94790208950F931F938C010E947E030B
:10073000C8010E9437021F910F9108951F920F92D6
:100740000FB60F9211242F938F939F93AF93BF9364
:1007500080911A0190911B01A0911C01B0911D0183
:100760008050904CAF4FBF4F80931A0190931B0164
:10077000A0931C01B0931D0127C080911A01909194
:100780001B01A0911C01B0911D0180589E43A04007
:10079000B04080931A0190931B01A0931C01B09369
:1007A0001D0180911E0190911F01A0912001B09127
:1007B00021010196A11DB11D80931E0190931F017F
:1007C000A0932001B093210180911A0190911B0107
:1007D000A0911C01B0911D0181589E43A040B040E2
:1007E00060F6BF91AF919F918F912F910F900FBEA7
:1007F0000F901F9018958FB7F89420911E0130919B
:100800001F0140912001509121018FBFB901CA0100
:100810000895EF92FF920F931F937B018C018FB786
:10082000F89440911E0150911F0160912001709138
:1008300021018FBF2FB7F89480911E0190911F0165
:10084000A0912001B09121012FBF841B950BA60B15
:10085000B70B8E159F05A007B10760F31F910F918D
:10086000FF90EF900895019759F0FC01EE0FFF1FE4
:10087000EE0FFF1F32978FB7F8943197F1F78FBFC4
:100880000895789484B5826084BD84B5816084BD08
:1008900085B5826085BD85B5816085BDEEE6F0E0F9
:1008A000808181608083E1E8F0E0808182608083E4
:1008B000808181608083E0E8F0E0808181608083D6
:1008C000E1EBF0E0808184608083E0EBF0E0808108
:1008D00081608083EAE7F0E08081846080838081AA
:1008E0008260808380818160808380818068808352
:1008F0001092C10008958093130108958F70909114
:1009000013019295990F990F907C982B90937C00EE
:1009100080917A00806480937A0080917A0086FDCD
:10092000FCCF2091780040917900942F80E030E056
:10093000282B392BC90108951F93CF93DF93182FCC
:10094000EB0161E00E94F004E12FF0E0E156FF4F7F
:100950008491833051F4809180008068809380007E
:10096000D0938900C093880037C0843051F48091BF
:100970008000806280938000D0938B00C0938A00B7
:100980002BC0813029F484B5806884BDC7BD24C0E4
:10099000823029F484B5806284BDC8BD1DC0863014
:1009A00041F48091B00080688093B000C093B300A0
:1009B00013C0873041F48091B00080628093B00012
:1009C000C093B40009C0C038D10514F460E001C080
:1009D00061E0812F0E940E05DF91CF911F91089554
:1009E000282F30E0C90185579F4FFC019491295869
:1009F0003F4FF9018491882381F0E82FF0E0E85916
:100A0000FF4FE491F0E0662329F4808190958923DB
:100A1000808308958081892B80830895482F50E03A
:100A2000CA0181569F4FFC012491CA0185579F4FEF
:100A3000FC01949149585F4FFA0134913323C1F17D
:100A4000222331F1233021F4809180008F7705C07B
:100A5000243031F4809180008F7D8093800018C015
:100A6000213019F484B58F7704C0223021F484B585
:100A70008F7D84BD0DC0263021F48091B0008F772A
:100A800005C0273029F48091B0008F7D8093B0009D
:100A9000E32FF0E0E359FF4FE491F0E0662329F4FF
:100AA000808190958923808308958081892B80831C
:100AB0000895482F50E0CA0181569F4FFC012491B0
:100AC000CA0185579F4FFC01949149585F4FFA0125
:100AD0003491332319F420E030E035C0222331F182
:100AE000233021F4809180008F7705C0243031F4C9
:100AF000809180008F7D8093800018C0213019F490
:100B000084B58F7704C0223021F484B58F7D84BDF5
:100B10000DC0263021F48091B0008F7705C02730BA
:100B200029F48091B0008F7D8093B000E32FF0E036
:100B3000EE58FF4FE491F0E0808120E030E089231F
:100B400011F021E030E0C9010895EF92FF920F9378
:100B50001F937B018C0122E030E040E050E00E94D6
:100B60009106205C3D4B404F5F4FCA01B901A8017F
:100B700097010E949106C901DA010197A109B10903
:100B8000292F3A2F4B2F552747FD5A950196A11D26
:100B9000B11D2093C50081508093C400E1ECF0E0CA
:100BA000808180618083808188608083808180688B
:100BB00080831F910F91FF90EF900895982F80915F
:100BC000C00085FFFCCF9093C6000895809122015C
:100BD0009091230180589F4F20912401309125014D
:100BE000821B930B60E870E00E945C0608954091C0
:100BF00024015091250180912201909123018417B5
:100C0000950719F42FEF3FEF0FC0FA01EA5DFE4F91
:100C10002081CA01019660E870E00E945C06909312
:100C200025018093240130E0C901089580912401B9
:100C300090912501909323018093220108951F92A2
:100C40000F920FB60F9211242F933F934F935F9300
:100C50006F937F938F939F93AF93BF93EF93FF9384
:100C60004091C600E0912201F0912301CF0101964D
:100C700060E870E00E945C069C01809124019091E4
:100C800025012817390739F0EA5DFE4F408330937C
:100C9000230120932201FF91EF91BF91AF919F918A
:100CA0008F917F916F915F914F913F912F910F9015
:100CB0000FBE0F901F90189597FB092E07260AD09C
:100CC00077FD04D049D006D000201AF470956195C4
:100CD0007F4F0895F6F7909581959F4F0895A1E273
:100CE0001A2EAA1BBB1BFD010DC0AA1FBB1FEE1FA6
:100CF000FF1FA217B307E407F50720F0A21BB30BF1
:100D0000E40BF50B661F771F881F991F1A9469F76C
:100D100060957095809590959B01AC01BD01CF01C8
:100D2000089597FB092E05260ED057FD04D0D7DF76
:100D30000AD0001C38F450954095309521953F4FCE
:100D40004F4F5F4F0895F6F7909580957095619598
:100D50007F4F8F4F9F4F0895AA1BBB1B51E107C0C8
:100D6000AA1FBB1FA617B70710F0A61BB70B881F3B
:100D7000991F5A95A9F780959095BC01CD010895CA
:100D8000EE0FFF1F0590F491E02D0994F894FFCF2A
:100D90000300050009000A000100010040000000F6
:040DA00000FD010150
:00000001FF
