:100000000C945B000C9483000C9483000C9483008C
:100010000C9483000C9483000C9483000C94830054
:100020000C9483000C9483000C9483000C94830044
:100030000C9483000C9483000C9483000C94830034
:100040000C9485020C9483000C9406050C94830098
:100050000C9483000C9483000C9483000C94830014
:100060000C9483000C948300000024272A000025B0
:10007000282B000023262904040404040404040299
:100080000202020202030303030303010204081035
:100090002040800102040810200102040810200002
:1000A0000000070002010000030406000000000039
:1000B00000000000DD0011241FBECFEFD4E0DEBF42
:1000C000CDBF11E0A0E0B1E0EEE5FBE002C005909D
:1000D0000D92AA31B107D9F711E0AAE1B1E001C050
:1000E0001D92AA3AB107E1F710E0C6EBD0E004C0D8
:1000F0002297FE010E94A905C43BD107C9F70E94BF
:10010000D6000C94AD050C940000CF92DF92EF92D4
:10011000FF920F931F9380911A010E9465037C0147
:100120000E94E202AB01BC018CE1C82E81E0D82E16
:100130002AE030E0C6010E94650260E071E0C6017D
:100140000E9406010027F7FC0095102F2AE030E0FE
:10015000B801A701C6010E94650265E071E0C60111
:100160000E9445011F910F91FF90EF90DF90CF907B
:1001700008950F931F930CE111E040E855E260E011
:1001800070E0C8010E94F10060911201C8010E9454
:10019000FE0060E080911A010E94D70361E0809127
:1001A00010010E94D7031F910F9108950E94280308
:1001B0000E94B9000E948500FDCF87E191E09093F5
:1001C0001D0180931C010895862F0E94C504089587
:1001D0000E94FD0408950E94DE0408950E94CD044B
:1001E0000895CB01BA010E948C040895DC01ED91C1
:1001F000FC910190F081E02D09950895DC01ED91CD
:10020000FC910190F081E02D099508950F931F93C3
:10021000CF93DF938C01EB0109C02196D801ED91BA
:10022000FC910190F081E02DC80109956881662359
:10023000A1F7DF91CF911F910F9108950F931F9315
:100240008C01DC01ED91FC910190F081E02D6DE0DD
:100250000995D801ED91FC910190F081E02D6AE0C3
:10026000C80109951F910F9108950F931F938C0159
:10027000DC01ED91FC910190F081E02D0995C80120
:100280000E941E011F910F9108950F931F938C01DF
:100290000E940601C8010E941E011F910F9108953E
:1002A0000F931F938C01DC01ED91FC910190F08183
:1002B000E02D0995C8010E941E011F910F9108951C
:1002C0002F923F924F925F926F927F928F929F9266
:1002D000AF92BF92CF92DF92EF92FF920F931F9354
:1002E000DF93CF93CDB7DEB7A0970FB6F894DEBFFC
:1002F0000FBECDBF1C016A017B014115510561058F
:10030000710549F4DC01ED91FC910190F081E02D43
:1003100060E3099554C0882499245401422E552441
:100320006624772401E010E00C0F1D1F080D191D35
:10033000C701B601A30192010E945605F80160832E
:100340000894811C911CA11CB11CC701B601A3011A
:1003500092010E945605C901DA016C017D01C114A8
:10036000D104E104F104F1F681E0E82EF12CEC0E69
:10037000FD1EE80CF91C3E010894611C711CD5019E
:10038000C4010197A109B1096C01C818D90814C0AA
:10039000F601EE0DFF1D60816A3010F4605D01C052
:1003A000695CD101ED91FC910190F081E02DC101DA
:1003B00009950894E108F1086E147F0449F7A096A6
:1003C0000FB6F894DEBF0FBECDBFCF91DF911F9166
:1003D0000F91FF90EF90DF90CF90BF90AF909F90E4
:1003E0008F907F906F905F904F903F902F900895E7
:1003F0002AE00E94600108950F931F938C010E94D0
:10040000F801C8010E941E011F910F910895AB01D0
:1004100060E070E00E94F80108950F931F938C0133
:10042000AB0160E070E00E94F801C8010E941E016B
:100430001F910F910895EF92FF920F931F93CF9307
:10044000DF93EC017A018B0177FF0FC0E881F9811E
:100450000190F081E02D6DE2099510950095F094E2
:10046000E094E11CF11C011D111D2AE0B801A70157
:10047000CE010E946001DF91CF911F910F91FF90FB
:10048000EF9008950F931F938C010E941B02C801E7
:100490000E941E011F910F910895AB01662757FD21
:1004A0006095762F0E941B0208950F931F938C0175
:1004B000AB01662757FD6095762F0E941B02C8018D
:1004C0000E941E011F910F910895DC012115310535
:1004D00041F4ED91FC910190F081E02D642F09959C
:1004E00008952A30310519F40E941B0208950E94D4
:1004F000600108950F931F938C010E946502C8014B
:100500000E941E011F910F9108951F920F920FB626
:100510000F9211242F938F939F93AF93BF9380914A
:100520001E0190911F01A0912001B09121018050E6
:10053000904CAF4FBF4F80931E0190931F01A0932B
:100540002001B093210127C080911E0190911F01CD
:10055000A0912001B091210180589E43A040B0405D
:1005600080931E0190931F01A0932001B09321015D
:100570008091220190912301A0912401B091250145
:100580000196A11DB11D8093220190932301A09398
:100590002401B093250180911E0190911F01A0912B
:1005A0002001B091210181589E43A040B04060F6E7
:1005B000BF91AF919F918F912F910F900FBE0F9090
:1005C0001F9018958FB7F894209122013091230144
:1005D00040912401509125018FBFB901CA010895AE
:1005E000EF92FF920F931F937B018C018FB7F894CA
:1005F00040912201509123016091240170912501C5
:100600008FBF2FB7F8948091220190912301A09180
:100610002401B09125012FBF841B950BA60BB70BAE
:100620008E159F05A007B10760F31F910F91FF90F2
:10063000EF900895019759F0FC01EE0FFF1FEE0FA8
:10064000FF1F32978FB7F8943197F1F78FBF089556
:10065000789484B5826084BD84B5816084BD85B59D
:10066000826085BD85B5816085BDEEE6F0E0808164
:1006700081608083E1E8F0E0808182608083808116
:1006800081608083E0E8F0E0808181608083E1EB3D
:10069000F0E0808184608083E0EBF0E08081816025
:1006A0008083EAE7F0E080818460808380818260DB
:1006B00080838081816080838081806880831092C4
:1006C000C10008958093190108958F7090911901C8
:1006D0009295990F990F907C982B90937C00809124
:1006E0007A00806480937A0080917A0086FDFCCF46
:1006F0002091780040917900942F80E030E0282B01
:10070000392BC90108951F93CF93DF93182FEB0165
:1007100061E00E94D703E12FF0E0E156FF4F8491A2
:10072000833051F480918000806880938000D09362
:100730008900C093880037C0843051F480918000D4
:10074000806280938000D0938B00C0938A002BC07E
:10075000813029F484B5806884BDC7BD24C082304F
:1007600029F484B5806284BDC8BD1DC0863041F4C3
:100770008091B00080688093B000C093B30013C034
:10078000873041F48091B00080628093B000C093C4
:10079000B40009C0C038D10514F460E001C061E0C4
:1007A000812F0E94F503DF91CF911F910895282F8B
:1007B00030E0C90185579F4FFC01949129583F4F64
:1007C000F9018491882381F0E82FF0E0E859FF4F88
:1007D000E491F0E0662329F4808190958923808359
:1007E00008958081892B80830895482F50E0CA01A5
:1007F00081569F4FFC012491CA0185579F4FFC01F0
:10080000949149585F4FFA0134913323C1F1222367
:1008100031F1233021F4809180008F7705C024309E
:1008200031F4809180008F7D8093800018C021304A
:1008300019F484B58F7704C0223021F484B58F7DFC
:1008400084BD0DC0263021F48091B0008F7705C0A3
:10085000273029F48091B0008F7D8093B000E32F82
:10086000F0E0E359FF4FE491F0E0662329F4808142
:1008700090958923808308958081892B80830895B2
:10088000482F50E0CA0181569F4FFC012491CA01B4
:1008900085579F4FFC01949149585F4FFA0134915D
:1008A000332319F420E030E035C0222331F1233026
:1008B00021F4809180008F7705C0243031F480913D
:1008C00080008F7D8093800018C0213019F484B59A
:1008D0008F7704C0223021F484B58F7D84BD0DC094
:1008E000263021F48091B0008F7705C0273029F49D
:1008F0008091B0008F7D8093B000E32FF0E0EE5840
:10090000FF4FE491F0E0808120E030E0892311F096
:1009100021E030E0C9010895EF92FF920F931F93F9
:100920007B018C0122E030E040E050E00E9478053D
:10093000205C3D4B404F5F4FCA01B901A8019701B0
:100940000E947805C901DA010197A109B109292F8F
:100950003A2F4B2F552747FD5A950196A11DB11DE2
:100960002093C50081508093C400E1ECF0E08081C9
:1009700080618083808188608083808180688083BB
:100980001F910F91FF90EF900895982F8091C000D4
:1009900085FFFCCF9093C600089580912601909129
:1009A000270180589F4F2091280130912901821BF7
:1009B000930B60E870E00E94430508954091280180
:1009C0005091290180912601909127018417950764
:1009D00019F42FEF3FEF0FC0FA01E65DFE4F2081C3
:1009E000CA01019660E870E00E94430590932901D6
:1009F0008093280130E0C9010895809128019091E9
:100A00002901909327018093260108951F920F9248
:100A10000FB60F9211242F933F934F935F936F93D1
:100A20007F938F939F93AF93BF93EF93FF934091E7
:100A3000C600E0912601F0912701CF01019660E800
:100A400070E00E9443059C0180912801909129014A
:100A50002817390739F0E65DFE4F408330932701B0
:100A600020932601FF91EF91BF91AF919F918F91BC
:100A70007F916F915F914F913F912F910F900FBE9A
:100A80000F901F90189597FB092E07260AD077FD27
:100A900004D049D006D000201AF4709561957F4F9C
:100AA0000895F6F7909581959F4F0895A1E21A2E2B
:100AB000AA1BBB1BFD010DC0AA1FBB1FEE1FFF1F02
:100AC000A217B307E407F50720F0A21BB30BE40B52
:100AD000F50B661F771F881F991F1A9469F7609599
:100AE0007095809590959B01AC01BD01CF01089553
:100AF00097FB092E05260ED057FD04D0D7DF0AD06C
:100B0000001C38F450954095309521953F4F4F4F3C
:100B10005F4F0895F6F790958095709561957F4F9A
:100B20008F4F9F4F0895AA1BBB1B51E107C0AA1FFF
:100B3000BB1FA617B70710F0A61BB70B881F991F7E
:100B40005A95A9F780959095BC01CD010895EE0FB7
:0E0B5000FF1F0590F491E02D0994F894FFCF5B
:100B5E006D733A20002F31303234202A2035560062
:0A0B6E000D004000000000E400014B
:00000001FF
